:020000040800F2
:10000000F02100249D03000859A9000891A00008D0
:1000100051A90008F907000869D300080000000092
:1000200000000000000000000000000079AD0008A2
:10003000A913000800000000D1A90008D9AD0008EC
:10004000BB030008BB030008BB030008BB03000898
:10005000BB030008BB030008BB030008BB03000888
:10006000BB030008BB030008BB030008010800082D
:10007000110800082108000831080008410800089C
:100080005108000861080008BB030008BB03000812
:10009000BB030008BB030008BB030008BB03000848
:1000A000BB030008BB030008BB030008BB03000838
:1000B000BB030008BB030008BB030008BB03000828
:1000C000BB030008BB030008BB030008BB03000818
:1000D000BB030008BB03000859D30008BB0300089A
:1000E000BB030008BB03000800000000BB030008BE
:1000F000BB03000841B20008BB03000871080008F8
:10010000BB030008BB03000831B20008BB030008B2
:10011000BB030008BB030008BB030008BB030008C7
:100120008108000891080008A1080008B10800082B
:10013000C1080008BB030008BB030008BB0300089C
:1001400000000000000000000000000000000000AF
:10015000D1080008E1080008F1080008BB03000806
:10016000BB030008BB030008BB030008BB03000877
:10017000BB030008BB030008BB030008000000002D
:10018000BB030008BB030008BB030008BB03000857
:10019000BB030008BB030008BB030008BB03000847
:1001A000BB030008BB030008BB03000800000000FD
:1001B000BB030008BB030008BB030008BB03000827
:1001C000BB030008BB0300080000000000000000A3
:1001D0000000000000000000BB0300080000000059
:1001E000000000000000000000000000000000000F
:1001F0000000000000000000BB030008BB03000873
:10020000BB030008BB03000800000000BB0300089C
:10021000BB030008BB030008BB030008BB030008C6
:10022000BB03000800000000BB0300080000000042
:10023000BB030008BB03000800000000BB0300086C
:10024000BB030008BB030008BB030008BB03000896
:10025000BB030008BB030008BB030008BB03000886
:10026000BB030008BB030008BB030008BB03000876
:10027000BB030008BB030008BB030008000000002C
:10028000BB030008BB030008BB030008BB03000856
:1002900000000000BB030008BB03000800000000D2
:1002A00000000000BB030008BB030008BB030008FC
:1002B000BB030008BB030008BB030008BB03000826
:1002C000BB030008BB030008BB03000800F002F8F2
:1002D00000F054F814A696E8000CB244B344DA4592
:1002E00001D100F04BF8BAE80F000FA696E83000F5
:1002F000A5EB040504EB0607AAEB0704A7F1010729
:100300004FEA15154FEA3414A4F10104AC4201D3AD
:1003100000F034F813F0010F18BFFB1A43F001038B
:1003200000F001F8DBE71847DCED0000FCED000011
:10033000103A24BF78C878C1FAD8520724BF30C811
:1003400030C144BF04680C60704700007047000073
:100350000023002400250026103A28BF78C1FBD8CE
:10036000520728BF30C148BF0B6070471FB50EF061
:1003700052FE00F06DF91FBD10B510BD00F0C2F9BE
:100380001146FFF7F3FF0EF0BFFD00F0E0F903B4F4
:10039000FFF7F2FF03BC00F0AFF900000A48804706
:1003A0000A4880470A480047FEE7FEE7FEE7FEE707
:1003B000FEE7FEE7FEE7FEE7FEE7FEE70548064943
:1003C000064A074B70470000C1130008C9B0000877
:1003D000CD020008F01B0024F0210024F01D0024B1
:1003E000F01D002453EA020C00F069802DE9F04B67
:1003F0004FF00006002B1FBFB3FA83F503FA05F494
:1004000024FA05F65E4012BF1643B2FA82F502FAEC
:1004100005F4C5F120051EBF22FA05FC44EA0C04D0
:10042000203556EA044C4FEA144418BF641C4FF0C0
:1004300000084FF00009904271EB030C39D30029FA
:1004400019BFB1FA81F701FA07F6B0FA80F700FA9E
:1004500007F6C7F120071EBF20FA07FC46EA0C0684
:100460002037B6FBF4FCA7EB0507103F07F01F0B86
:10047000CBF120062CFA06F60CFA0BFB44BFB34670
:100480000026202FA4BF5E464FF0000B5BEA060C4F
:1004900008BF4FF0010B19EB0B0948EB0608ABFB4B
:1004A000027C06FB02CC0BFB03CCC01B71EB0C01E6
:1004B000C1E70B46024641464846BDE8F08B13B5FE
:1004C000084318BF4FF0FF300146AFF30080BDE88E
:1004D0001C40704740EA010310B59B070FD1042A66
:1004E0000DD310C808C9121F9C42F8D020BA19BAFF
:1004F000884201D9012010BD4FF0FF3010BD1AB164
:10050000D30703D0521C07E0002010BD10F8013BB8
:1005100011F8014B1B1B07D110F8013B11F8014BDF
:100520001B1B01D1921EF1D1184610BD032A40F2C7
:10053000308010F0030C00F0158011F8013BBCF185
:10054000020F624498BF11F801CB00F8013B38BF9D
:1005500011F8013BA2F1040298BF00F801CB38BFAB
:1005600000F8013B11F0030300F08880083AC0F066
:10057000088051F8043B083A51F804CBA0E8081071
:10058000F5E7121D5CBF51F8043B40F8043BAFF3A4
:100590000080D20724BF11F8013B11F801CB48BFFE
:1005A00011F8012B24BF00F8013B00F801CB48BF34
:1005B00000F8012B70474FF000020429C0F01280B0
:1005C00010F0030C00F01B80CCF1040CBCF1020F06
:1005D00018BF00F8012BA8BF20F8022BA1EB0C01DB
:1005E00000F00DB85FEAC17C24BF00F8012B00F8D1
:1005F000012B48BF00F8012B70474FF0000200B5F7
:10060000134694469646203922BFA0E80C50A0E835
:100610000C50B1F12001BFF4F7AF090728BFA0E8E3
:100620000C5048BF0CC05DF804EB890028BF40F8AF
:10063000042B08BF704748BF20F8022B11F0804FF1
:1006400018BF00F8012B70477047704770470000D3
:1006500008487CB57844009007487844009C0546DB
:10066000019004E02046016808448047241DAC4204
:10067000F8D17CBDCCEA0000CAEA000010B5203AEF
:10068000C0F00B80B1E81850A0E81850B1E818503D
:10069000A0E81850203ABFF4F5AF5FEA027C24BF0F
:1006A000B1E81850A0E8185044BF18C918C0BDE8F8
:1006B00010405FEA827C24BF51F8043B40F8043BC1
:1006C00008BF7047D20728BF31F8023B48BF11F876
:1006D000012B28BF20F8023B48BF00F8012B7047D0
:1006E00010B5002000F03CF8FFF746FEBDE81040D2
:1006F000012000F001B8000001491820ABBEFEE760
:1007000026000200754600F033F8AE460500694643
:10071000534620F00700854618B020B5FFF74EFE7F
:10072000BDE820404FF000064FF000074FF00008F2
:100730004FF0000BAC46ACE8C009ACE8C009ACE82F
:10074000C009ACE8C00921F007018D46704710B51B
:100750000446AFF300802046BDE81040FFF717BE07
:1007600010B500F00FF8BDE8104000F006B800002A
:1007700000487047100000247047002801D0FFF7A0
:10078000BBBF704710B5002102A000F013F8012094
:1007900010BD0000534947414252543A2041626E15
:1007A0006F726D616C207465726D696E6174696FD2
:1007B0006E00000070B505460C460A2000E06D1C76
:1007C00000F011F835B128780028F8D102E0641C57
:1007D00000F009F814B120780028F8D1BDE8704085
:1007E0000A20AFF3008008B569468DF800000320A9
:1007F000ABBE08BD00000000FFE7FEE70000000000
:1008000080B541F2CC10C2F2004001F001FE80BD83
:1008100080B541F24420C2F2004001F0F9FD80BDF4
:1008200080B541F23430C2F2004001F0F1FD80BDEC
:1008300080B541F2BC20C2F2004001F0E9FD80BD6C
:1008400080B541F2AC30C2F2004001F0E1FD80BD64
:1008500080B541F22440C2F2004001F0D9FD80BDD4
:1008600080B541F29C40C2F2004001F0D1FD80BD54
:1008700080B541F21450C2F2004001F0C9FD80BDC4
:1008800080B541F28C50C2F2004001F0C1FD80BD44
:1008900080B541F20460C2F2004001F0B9FD80BDB4
:1008A00080B541F27C60C2F2004001F0B1FD80BD34
:1008B00080B541F2F460C2F2004001F0A9FD80BDB4
:1008C00080B541F26C70C2F2004001F0A1FD80BD24
:1008D00080B541F2E470C2F2004001F099FD80BDA4
:1008E00080B541F65C00C2F2004001F091FD80BD90
:1008F00080B541F6D400C2F2004001F089FD80BD10
:1009000083B002900298016801201022C4F2020212
:100910009142009000F0A380FFE702980168012057
:100920002822C4F202029142009000F09880FFE772
:100930000298016801204022C4F202029142009014
:1009400000F08D80FFE70298016801205822C4F270
:1009500002029142009000F08280FFE70298016855
:1009600001207022C4F202029142009077D0FFE78A
:100970000298016801208822C4F20202914200908C
:100980006DD0FFE7029801680120A022C4F20202A4
:100990009142009063D0FFE7029801680120B822DD
:1009A000C4F202029142009059D0FFE70298016818
:1009B000012040F21042C4F20202914200904ED057
:1009C000FFE702980168012040F22842C4F20202C7
:1009D0009142009043D0FFE702980168012040F265
:1009E0004042C4F202029142009038D0FFE70298E0
:1009F0000168012040F25842C4F202029142009084
:100A00002DD0FFE702980168012040F27042C4F245
:100A100002029142009022D0FFE702980168012073
:100A200040F28842C4F202029142009017D0FFE7E0
:100A300002980168012040F2A042C4F202029142F1
:100A400000900CD0FFE7029800684FF64831CBF6D3
:100A5000FD710844B0FA80F040090090FFE700986B
:100A6000C00740B3FFE70298007810384AF6AB2180
:100A7000CAF6AA21A0FB011000090190019800F01C
:100A800007014FF24000C0F60000405C0299C865C3
:100A90000198042807D3FFE702990868042262F34B
:100AA0000900886506E00299086840F2FF32904329
:100AB0008865FFE705E00299086820F0FF00886577
:100AC000FFE70298806D03B070470000000000004F
:100AD00084B0039003980068019003980168012096
:100AE00045F20842C5F60202914200904ED0FFE75F
:100AF00003980168012045F21C42C5F602029142AA
:100B0000009043D0FFE703980168012045F230428E
:100B1000C5F602029142009038D0FFE703980168C1
:100B2000012045F24442C5F60202914200902DD0C8
:100B3000FFE703980168012045F25842C5F602021A
:100B40009142009022D0FFE703980168012045F20E
:100B50006C42C5F602029142009017D0FFE703985D
:100B60000168012045F28042C5F6020291420090E0
:100B70000CD0FFE7039800684AF66C31CAF2FD71A9
:100B80000844B0FA80F040090090FFE70098C007E1
:100B900010B3FFE70398007808384CF6CD41CCF647
:100BA000CC41A0FB011000090290029945F600001B
:100BB000C5F6020000EB810003990866039945F62B
:100BC0008000C5F602004866029800F01F0101206F
:100BD00088400399886635E00398007810384AF613
:100BE000AB21CAF6AA21A0FB0110000902900198CE
:100BF00040F2B841C4F2020188420CD8FFE70198E4
:100C000040F21041C4F20201884204D3FFE7029887
:100C100008300290FFE7029940F60000C4F202009B
:100C200000EB810003990866039940F68000C4F246
:100C300002004866029800F01F01012088400399D5
:100C40008866FFE704B0704783B00290029800798D
:100C500001900198002800F08A80FFE70198082899
:100C600000F28580FFE702980168012045F2084202
:100C7000C5F60202914200904ED0FFE7029801684B
:100C8000012045F21C42C5F602029142009043D079
:100C9000FFE702980168012045F23042C5F60202E2
:100CA0009142009038D0FFE702980168012045F298
:100CB0004442C5F60202914200902DD0FFE702980F
:100CC0000168012045F25842C5F6020291420090A7
:100CD00022D0FFE702980168012045F26C42C5F678
:100CE00002029142009017D0FFE7029801680120AC
:100CF00045F28042C5F60202914200900CD0FFE717
:100D0000029800684AF66C31CAF2FD710844B0FAE4
:100D100080F040090090FFE70098C00780B1FFE72E
:100D2000019945F6FC00C5F6020000EB810002992E
:100D3000C866029945F64010C5F6020008670FE044
:100D4000019940F6FC00C4F2020000EB8100029918
:100D5000C866029940F64010C4F202000867FFE737
:100D60000198411E0120884002994867FFE703B0BF
:100D7000704700000000000085B0049000208DF84E
:100D80000F000498806918BBFFE70498806A0290FE
:100D900003281BD80299DFE801F0020D021804981D
:100DA00090F82F00C00720B1FFE701208DF80F0059
:100DB000FFE70CE00498C06AB0F1C07F04D1FFE700
:100DC00001208DF80F00FFE701E000E0FFE747E0BA
:100DD00004988069B0F5005F26D1FFE70498806A27
:100DE000019003281ED80199DFE801F002060211E4
:100DF00001208DF80F0016E0049890F82F00C0072E
:100E000020B1FFE701208DF80F00FFE70BE0049809
:100E1000C06AB0F1C07F04D1FFE701208DF80F0058
:100E2000FFE700E0FFE71AE00498806A00900328DB
:100E300004D3FFE70098032804D00EE001208DF8CA
:100E40000F000BE0049890F82F00C00720B1FFE7D7
:100E500001208DF80F00FFE700E0FFE7FFE7FFE765
:100E60009DF80F0005B0704789B008900791069271
:100E700005930898806D04900898806D03900898F9
:100E8000016801201022C4F202029142029000F097
:100E90000381FFE70898016801202822C4F20202BA
:100EA0009142029000F0F880FFE708980168012065
:100EB0004022C4F202029142029000F0ED80FFE76E
:100EC0000898016801205822C4F20202914202905F
:100ED00000F0E280FFE70898016801207022C4F268
:100EE00002029142029000F0D780FFE70898016863
:100EF00001208822C4F202029142029000F0CC80CC
:100F0000FFE7089801680120A022C4F20202914282
:100F1000029000F0C180FFE7089801680120B82224
:100F2000C4F202029142029000F0B680FFE70898F6
:100F30000168012040F21042C4F202029142029084
:100F400000F0AA80FFE708980168012040F22842DB
:100F5000C4F202029142029000F09E80FFE70898DE
:100F60000168012040F24042C4F202029142029024
:100F700000F09280FFE708980168012040F2584293
:100F8000C4F202029142029000F08680FFE70898C6
:100F90000168012040F27042C4F2020291420290C4
:100FA0007AD0FFE708980168012040F28842C4F235
:100FB0000202914202906FD0FFE708980168012079
:100FC00040F2A042C4F202029142029064D0FFE7D4
:100FD00008980168012040F2B842C4F2020291422E
:100FE000029059D0FFE708980168012045F20842B5
:100FF000C5F60202914202904ED0FFE708980168C0
:10100000012045F21C42C5F602029142029043D0F3
:10101000FFE708980168012045F23042C5F6020258
:101020009142029038D0FFE708980168012045F20C
:101030004442C5F60202914202902DD0FFE7089883
:101040000168012045F25842C5F602029142029021
:1010500022D0FFE708980168012045F26C42C5F6EE
:1010600002029142029017D0FFE708980168012020
:1010700045F28042C5F60202914202900CD0FFE791
:10108000089800684AF66C31CAF2FD710844B0FA5B
:1010900080F040090290FFE70298C00770B1FFE7B7
:1010A0000898416E806E48600898C06E28B1FFE7CE
:1010B0000898016F406F4860FFE7FFE708980168F4
:1010C00001201022C4F202029142019000F0A3809C
:1010D000FFE70898016801202822C4F20202914229
:1010E000019000F09880FFE70898016801204022F5
:1010F000C4F202029142019000F08D80FFE708984F
:10110000016801205822C4F202029142019000F0CD
:101110008280FFE70898016801207022C4F2020271
:101120009142019077D0FFE708980168012088225A
:10113000C4F20202914201906DD0FFE70898016865
:101140000120A022C4F202029142019063D0FFE785
:10115000089801680120B822C4F20202914201906D
:1011600059D0FFE708980168012040F21042C4F20C
:101170000202914201904ED0FFE7089801680120D9
:1011800040F22842C4F202029142019043D0FFE7AC
:1011900008980168012040F24042C4F202029142E4
:1011A000019038D0FFE708980168012040F25842CA
:1011B000C4F20202914201902DD0FFE70898016825
:1011C000012040F27042C4F202029142019022D00A
:1011D000FFE708980168012040F28842C4F2020249
:1011E0009142019017D0FFE708980168012040F272
:1011F000A042C4F20202914201900CD0FFE708988D
:1012000000684FF64831CBF6FD710844B0FA80F023
:1012100040090190FFE70198C00750B3FFE7089825
:10122000C06D00F01F013F20884004998860089835
:101230000168086820F4802008600598089909680A
:10124000486008988068402809D1FFE70698089907
:1012500009688860079808990968C86008E00798D5
:10126000089909688860069808990968C860FFE7C6
:1012700082E008980168012045F20842C5F60202A2
:10128000914200904ED0FFE708980168012045F296
:101290001C42C5F602029142009043D0FFE7089835
:1012A0000168012045F23042C5F6020291420090E9
:1012B00038D0FFE708980168012045F24442C5F69E
:1012C0000202914200902DD0FFE7089801680120AA
:1012D00045F25842C5F602029142009022D0FFE743
:1012E00008980168012045F26C42C5F6020291425D
:1012F000009017D0FFE708980168012045F280426E
:10130000C5F60202914200900CD0FFE708980068F1
:101310004AF66C31CAF2FD710844B0FA80F0400917
:101320000090FFE70098C00720B3FFE70898C06D62
:1013300000F01F0101208840039948600598089932
:101340000968486008988068402809D1FFE7069836
:10135000089909688860079808990968C86008E0D2
:101360000798089909688860069808990968C8600C
:10137000FFE700E0FFE7FFE709B07047000000006B
:101380004EF6FC51CEF20001086840F08070086013
:1013900041F20001CEF20001086840F0010008604F
:1013A00070470000000000007047000000000000CF
:1013B00081B0EFF3108072B60090FFE7FEE7000007
:1013C00044F60C01C5F60201086840F0020008600E
:1013D000FFE744F60400C5F6020000688004002818
:1013E00001D4FFE7F5E7704780B58AB0089003F0B5
:1013F000F7FA0490089828B9FFE701208DF8270034
:1014000000F0AABC089890F8350002280ED0FFE73B
:10141000089980204865FFE70899002081F834008A
:10142000FFE701208DF8270000F096BC08980168BE
:1014300001201022C4F202029142039000F0A38026
:10144000FFE70898016801202822C4F202029142B5
:10145000039000F09880FFE708980168012040227F
:10146000C4F202029142039000F08D80FFE70898D9
:10147000016801205822C4F202029142039000F058
:101480008280FFE70898016801207022C4F20202FE
:101490009142039077D0FFE70898016801208822E5
:1014A000C4F20202914203906DD0FFE708980168F0
:1014B0000120A022C4F202029142039063D0FFE710
:1014C000089801680120B822C4F2020291420390F8
:1014D00059D0FFE708980168012040F21042C4F299
:1014E0000202914203904ED0FFE708980168012064
:1014F00040F22842C4F202029142039043D0FFE737
:1015000008980168012040F24042C4F20202914270
:10151000039038D0FFE708980168012040F2584254
:10152000C4F20202914203902DD0FFE708980168AF
:10153000012040F27042C4F202029142039022D094
:10154000FFE708980168012040F28842C4F20202D5
:101550009142039017D0FFE708980168012040F2FC
:10156000A042C4F20202914203900CD0FFE7089817
:1015700000684FF64831CBF6FD710844B0FA80F0B0
:1015800040090390FFE70398C00780B1FFE7089880
:101590000168086820F01E00086008980168486922
:1015A00020F08000486108980068059009E00898DC
:1015B0000168086820F00E0008600898006805902F
:1015C000FFE70898016801201022C4F2020291424C
:1015D000029000F00381FFE70898016801202822AB
:1015E000C4F202029142029000F0F880FFE70898EE
:1015F000016801204022C4F202029142029000F0F0
:10160000ED80FFE70898016801205822C4F2020229
:101610009142029000F0E280FFE708980168012003
:101620007022C4F202029142029000F0D780FFE7DC
:101630000898016801208822C4F2020291420290B7
:1016400000F0CC80FFE7089801680120A022C4F2D6
:1016500002029142029000F0C180FFE70898016801
:101660000120B822C4F202029142029000F0B6803A
:10167000FFE708980168012040F21042C4F202021C
:101680009142029000F0AA80FFE7089801680120CB
:1016900040F22842C4F202029142029000F09E8081
:1016A000FFE708980168012040F24042C4F20202BC
:1016B0009142029000F09280FFE7089801680120B3
:1016C00040F25842C4F202029142029000F0868039
:1016D000FFE708980168012040F27042C4F202025C
:1016E000914202907AD0FFE708980168012040F209
:1016F0008842C4F20202914202906FD0FFE708983C
:101700000168012040F2A042C4F20202914202901C
:1017100064D0FFE708980168012040F2B842C4F2A3
:1017200002029142029059D0FFE708980168012017
:1017300045F20842C5F60202914202904ED0FFE700
:1017400008980168012045F21C42C5F60202914248
:10175000029043D0FFE708980168012045F230422B
:10176000C5F602029142029038D0FFE7089801685E
:10177000012045F24442C5F60202914202902DD06A
:10178000FFE708980168012045F25842C5F60202B9
:101790009142029022D0FFE708980168012045F2AB
:1017A0006C42C5F602029142029017D0FFE70898FA
:1017B0000168012045F28042C5F602029142029082
:1017C0000CD0FFE7089800684AF66C31CAF2FD7148
:1017D0000844B0FA80F040090290FFE70298C00781
:1017E00038B1FFE70898016E086820F4807008603F
:1017F000FFE7089800681021C4F20201884200F057
:101800008180FFE7089800682821C4F2020188421D
:1018100078D0FFE7089800684021C4F202018842AE
:1018200070D0FFE7089800685821C4F2020188428E
:1018300068D0FFE7089800687021C4F2020188426E
:1018400060D0FFE7089800688821C4F2020188424E
:1018500058D0FFE708980068A021C4F2020188422E
:1018600050D0FFE708980068B821C4F2020188420E
:1018700048D0FFE70898006840F21041C4F2020126
:1018800088423FD0FFE70898006840F22841C4F240
:101890000201884236D0FFE70898006840F24041D4
:1018A000C4F2020188422DD0FFE70898006840F298
:1018B0005841C4F20201884224D0FFE7089800682A
:1018C00040F27041C4F2020188421BD0FFE7089841
:1018D000006840F28841C4F20201884212D0FFE75A
:1018E0000898006840F2A041C4F20201884209D081
:1018F000FFE70898006840F2B841C4F2020188424C
:1019000007D1FFE708980168086820F00100086027
:1019100006E008980168086820F001000860FFE709
:10192000FFE705980068C007C8B1FFE703F058F863
:101930000499401A062811D3FFE70899202048652A
:101940000899032081F83500FFE70899002081F805
:101950003400FFE701208DF82700FDE1E1E708985A
:10196000016801201022C4F202029142019000F0AD
:10197000A380FFE70898016801202822C4F2020230
:101980009142019000F09880FFE7089801680120DB
:101990004022C4F202029142019000F08D80FFE7E4
:1019A0000898016801205822C4F202029142019075
:1019B00000F08280FFE70898016801207022C4F2DD
:1019C00002029142019077D0FFE708980168012058
:1019D0008822C4F20202914201906DD0FFE708987C
:1019E00001680120A022C4F202029142019063D05A
:1019F000FFE7089801680120B822C4F20202914270
:101A0000019059D0FFE708980168012040F2104288
:101A1000C4F20202914201904ED0FFE7089801689B
:101A2000012040F22842C4F202029142019043D0C8
:101A3000FFE708980168012040F24042C4F2020228
:101A40009142019038D0FFE708980168012040F2E8
:101A50005842C4F20202914201902DD0FFE708984B
:101A60000168012040F27042C4F2020291420190EA
:101A700022D0FFE708980168012040F28842C4F2B2
:101A800002029142019017D0FFE7089801680120F7
:101A900040F2A042C4F20202914201900CD0FFE752
:101AA000089800684FF64831CBF6FD710844B0FA4B
:101AB00080F040090190FFE70198C00760B1FFE79F
:101AC0000898806D07900898C06D00F01F013F20B6
:101AD0008840079988600BE00898806D0690089808
:101AE000C06D00F01F010120884006994860FFE7A3
:101AF0000898016801201022C4F20202914200906D
:101B000000F00381FFE70898016801202822C4F251
:101B100002029142009000F0F880FFE70898016807
:101B200001204022C4F202029142009000F0ED80B8
:101B3000FFE70898016801205822C4F2020291428E
:101B4000009000F0E280FFE7089801680120702211
:101B5000C4F202029142009000F0D780FFE708989B
:101B6000016801208822C4F202029142009000F034
:101B7000CC80FFE7089801680120A022C4F202028D
:101B80009142009000F0C180FFE7089801680120B1
:101B9000B822C4F202029142009000F0B680FFE742
:101BA00008980168012040F21042C4F202029142FA
:101BB000009000F0AA80FFE708980168012040F239
:101BC0002842C4F202029142009000F09E80FFE79A
:101BD00008980168012040F24042C4F2020291429A
:101BE000009000F09280FFE708980168012040F221
:101BF0005842C4F202029142009000F08680FFE752
:101C000008980168012040F27042C4F20202914239
:101C100000907AD0FFE708980168012040F28842DE
:101C2000C4F20202914200906FD0FFE70898016869
:101C3000012040F2A042C4F202029142009064D01E
:101C4000FFE708980168012040F2B842C4F202029E
:101C50009142009059D0FFE708980168012045F2B1
:101C60000842C5F60202914200904ED0FFE7089864
:101C70000168012045F21C42C5F602029142009023
:101C800043D0FFE708980168012045F23042C5F6CD
:101C900002029142009038D0FFE7089801680120C5
:101CA00045F24442C5F60202914200902DD0FFE772
:101CB00008980168012045F25842C5F60202914297
:101CC000009022D0FFE708980168012045F26C429D
:101CD000C5F602029142009017D0FFE7089801680C
:101CE000012045F28042C5F60202914200900CD0DC
:101CF000FFE7089800684AF66C31CAF2FD710844A3
:101D0000B0FA80F040090090FFE70098C007A0B14A
:101D1000FFE70898416E806E48600898C06E58B121
:101D2000FFE70898C16E086820F480700860089882
:101D3000016F406F4860FFE7FFE70899012081F8D5
:101D40003500FFE70899002081F83400FFE7FFE73E
:101D500000208DF82700FFE79DF827000AB080BD1E
:101D600080B586B00490049820B9FFE701208DF873
:101D7000170046E3049890F83500022807D0FFE7E3
:101D800004998020486501208DF8170039E30498F4
:101D9000016801201022C4F202029142029000F078
:101DA000A380FFE70498016801202822C4F2020200
:101DB0009142029000F09880FFE7049801680120AA
:101DC0004022C4F202029142029000F08D80FFE7AF
:101DD0000498016801205822C4F202029142029044
:101DE00000F08280FFE70498016801207022C4F2AD
:101DF00002029142029077D0FFE704980168012027
:101E00008822C4F20202914202906DD0FFE704984A
:101E100001680120A022C4F202029142029063D024
:101E2000FFE7049801680120B822C4F2020291423F
:101E3000029059D0FFE704980168012040F2104257
:101E4000C4F20202914202904ED0FFE7049801686A
:101E5000012040F22842C4F202029142029043D093
:101E6000FFE704980168012040F24042C4F20202F8
:101E70009142029038D0FFE704980168012040F2B7
:101E80005842C4F20202914202902DD0FFE704981A
:101E90000168012040F27042C4F2020291420290B5
:101EA00022D0FFE704980168012040F28842C4F282
:101EB00002029142029017D0FFE7049801680120C6
:101EC00040F2A042C4F20202914202900CD0FFE71D
:101ED000049800684FF64831CBF6FD710844B0FA1B
:101EE00080F040090290FFE70298C007002800F048
:101EF0009D80FFE70499042081F83500049800686C
:101F00001021C4F20201884200F08180FFE70498AA
:101F100000682821C4F20201884278D0FFE70498C3
:101F200000684021C4F20201884270D0FFE70498A3
:101F300000685821C4F20201884268D0FFE7049883
:101F400000687021C4F20201884260D0FFE7049863
:101F500000688821C4F20201884258D0FFE7049843
:101F60000068A021C4F20201884250D0FFE7049823
:101F70000068B821C4F20201884248D0FFE7049803
:101F8000006840F21041C4F2020188423FD0FFE7EE
:101F90000498006840F22841C4F20201884236D019
:101FA000FFE70498006840F24041C4F20201884211
:101FB0002DD0FFE70498006840F25841C4F20201B6
:101FC000884224D0FFE70498006840F27041C4F2D0
:101FD000020188421BD0FFE70498006840F2884164
:101FE000C4F20201884212D0FFE70498006840F270
:101FF000A041C4F20201884209D0FFE704980068BA
:1020000040F2B841C4F20201884207D1FFE70498C8
:102010000168086820F00100086006E00498016883
:10202000086820F001000860FFE7E5E10498016816
:10203000086820F00E000860049800681021C4F2BF
:102040000201884200F08180FFE70498006828219F
:10205000C4F20201884278D0FFE70498006840216A
:10206000C4F20201884270D0FFE70498006858214A
:10207000C4F20201884268D0FFE70498006870212A
:10208000C4F20201884260D0FFE70498006888210A
:10209000C4F20201884258D0FFE704980068A021EA
:1020A000C4F20201884250D0FFE704980068B821CA
:1020B000C4F20201884248D0FFE70498006840F269
:1020C0001041C4F2020188423FD0FFE70498006843
:1020D00040F22841C4F20201884236D0FFE704985A
:1020E000006840F24041C4F2020188422DD0FFE76F
:1020F0000498006840F25841C4F20201884224D09A
:10210000FFE70498006840F27041C4F2020188427F
:102110001BD0FFE70498006840F28841C4F2020136
:10212000884212D0FFE70498006840F2A041C4F250
:102130000201884209D0FFE70498006840F2B841E4
:10214000C4F20201884207D1FFE7049801680868D9
:1021500020F00100086006E004980168086820F09B
:1021600001000860FFE70498016801201022C4F212
:1021700002029142019000F00381FFE70498016898
:1021800001202822C4F202029142019000F0F8805E
:10219000FFE70498016801204022C4F20202914244
:1021A000019000F0ED80FFE70498016801205822BB
:1021B000C4F202029142019000F0E280FFE704982D
:1021C000016801207022C4F202029142019000F0E5
:1021D000D780FFE70498016801208822C4F2020238
:1021E0009142019000F0CC80FFE704980168012043
:1021F000A022C4F202029142019000F0C180FFE7E8
:10220000049801680120B822C4F2020291420190B0
:1022100000F0B680FFE704980168012040F2104208
:10222000C4F202029142019000F0AA80FFE70498F4
:102230000168012040F22842C4F20202914201905A
:1022400000F09E80FFE704980168012040F24042C0
:10225000C4F202029142019000F09280FFE70498DC
:102260000168012040F25842C4F2020291420190FA
:1022700000F08680FFE704980168012040F2704278
:10228000C4F20202914201907AD0FFE704980168FB
:10229000012040F28842C4F20202914201906FD0C4
:1022A000FFE704980168012040F2A042C4F2020254
:1022B0009142019064D0FFE704980168012040F248
:1022C000B842C4F202029142019059D0FFE704984B
:1022D0000168012045F20842C5F6020291420190D0
:1022E0004ED0FFE704980168012045F21C42C5F674
:1022F00002029142019043D0FFE704980168012057
:1023000045F23042C5F602029142019038D0FFE713
:1023100004980168012045F24442C5F60202914248
:1023200001902DD0FFE704980168012045F2584242
:10233000C5F602029142019022D0FFE7049801689D
:10234000012045F26C42C5F602029142019017D07D
:10235000FFE704980168012045F28042C5F60202B9
:10236000914201900CD0FFE7049800684AF66C3166
:10237000CAF2FD710844B0FA80F040090190FFE70D
:102380000198C00728B3FFE70498016E086820F49D
:10239000807008600498806D03900498C06D00F010
:1023A0001F0101208840039948600498416E806EA7
:1023B00048600498C06E58B1FFE70498C16E086881
:1023C00020F4807008600498016F406F4860FFE758
:1023D000FFE70499012081F83500FFE70499002008
:1023E00081F83400FFE70498006D20B1FFE70498FE
:1023F000016D8847FFE7FFE7FFE700208DF8170032
:10240000FFE79DF8170006B080BD00000000000047
:1024100080B590B00F9000200B9040F20000C2F207
:102420000040006848F2B511C1F64E31A0FB011022
:10243000800A0A900F98806D09900F98806D08901F
:10244000099800680E90089800680D900F98016830
:1024500001201022C4F202029142079000F0A380F2
:10246000FFE70F98016801202822C4F2020291427E
:10247000079000F09880FFE70F9801680120402244
:10248000C4F202029142079000F08D80FFE70F989E
:10249000016801205822C4F202029142079000F024
:1024A0008280FFE70F98016801207022C4F20202C7
:1024B0009142079077D0FFE70F98016801208822AA
:1024C000C4F20202914207906DD0FFE70F980168B5
:1024D0000120A022C4F202029142079063D0FFE7DC
:1024E0000F9801680120B822C4F2020291420790BD
:1024F00059D0FFE70F980168012040F21042C4F262
:102500000202914207904ED0FFE70F980168012028
:1025100040F22842C4F202029142079043D0FFE702
:102520000F980168012040F24042C4F20202914239
:10253000079038D0FFE70F980168012040F2584219
:10254000C4F20202914207902DD0FFE70F98016874
:10255000012040F27042C4F202029142079022D060
:10256000FFE70F980168012040F28842C4F202029E
:102570009142079017D0FFE70F980168012040F2C1
:10258000A042C4F20202914207900CD0FFE70F98DC
:1025900000684FF64831CBF6FD710844B0FA80F080
:1025A00040090790FFE70798C007002800F013854F
:1025B000FFE70E980F99C96D01F01F01C840000791
:1025C000002840F1B080FFE70F9800681021C4F2A6
:1025D0000201884200F08180FFE70F9800682821FF
:1025E000C4F20201884278D0FFE70F9800684021CA
:1025F000C4F20201884270D0FFE70F9800685821AA
:10260000C4F20201884268D0FFE70F980068702189
:10261000C4F20201884260D0FFE70F980068882169
:10262000C4F20201884258D0FFE70F980068A02149
:10263000C4F20201884250D0FFE70F980068B82129
:10264000C4F20201884248D0FFE70F98006840F2C8
:102650001041C4F2020188423FD0FFE70F980068A2
:1026600040F22841C4F20201884236D0FFE70F98B9
:10267000006840F24041C4F2020188422DD0FFE7D9
:102680000F98006840F25841C4F20201884224D0F9
:10269000FFE70F98006840F27041C4F202018842DF
:1026A0001BD0FFE70F98006840F28841C4F2020196
:1026B000884212D0FFE70F98006840F2A041C4F2B0
:1026C0000201884209D0FFE70F98006840F2B84144
:1026D000C4F20201884207D1FFE70F980068006842
:1026E00000F00400069006E00F980068006800F013
:1026F00008000690FFE70698A0B1FFE70F98016871
:10270000086820F0040008600F98C06D00F01F01F9
:1027100008208840099988600F99486D40F00100B1
:102720004865FFE7FFE70E980F99C96D01F01F019B
:10273000C840C007002800F0A980FFE70F98006894
:102740001021C4F20201884200F08180FFE70F9857
:1027500000682821C4F20201884278D0FFE70F9870
:1027600000684021C4F20201884270D0FFE70F9850
:1027700000685821C4F20201884268D0FFE70F9830
:1027800000687021C4F20201884260D0FFE70F9810
:1027900000688821C4F20201884258D0FFE70F98F0
:1027A0000068A021C4F20201884250D0FFE70F98D0
:1027B0000068B821C4F20201884248D0FFE70F98B0
:1027C000006840F21041C4F2020188423FD0FFE7A6
:1027D0000F98006840F22841C4F20201884236D0C6
:1027E000FFE70F98006840F24041C4F202018842BE
:1027F0002DD0FFE70F98006840F25841C4F2020163
:10280000884224D0FFE70F98006840F27041C4F27C
:10281000020188421BD0FFE70F98006840F2884110
:10282000C4F20201884212D0FFE70F98006840F21C
:10283000A041C4F20201884209D0FFE70F98006866
:1028400040F2B841C4F20201884207D1FFE70F9875
:102850000068406900F08000059005E00F9800686E
:10286000006800200590FFE7059870B1FFE70F981A
:10287000C06D00F01F0101208840099988600F9900
:10288000486D40F002004865FFE7FFE70E980F999A
:10289000C96D01F01F01C8404007002840F1A98020
:1028A000FFE70F9800681021C4F20201884200F08F
:1028B0008180FFE70F9800682821C4F20201884256
:1028C00078D0FFE70F9800684021C4F202018842E7
:1028D00070D0FFE70F9800685821C4F202018842C7
:1028E00068D0FFE70F9800687021C4F202018842A7
:1028F00060D0FFE70F9800688821C4F20201884287
:1029000058D0FFE70F980068A021C4F20201884266
:1029100050D0FFE70F980068B821C4F20201884246
:1029200048D0FFE70F98006840F21041C4F202015E
:1029300088423FD0FFE70F98006840F22841C4F278
:102940000201884236D0FFE70F98006840F240410C
:10295000C4F2020188422DD0FFE70F98006840F2D0
:102960005841C4F20201884224D0FFE70F98006862
:1029700040F27041C4F2020188421BD0FFE70F9879
:10298000006840F28841C4F20201884212D0FFE799
:102990000F98006840F2A041C4F20201884209D0B9
:1029A000FFE70F98006840F2B841C4F20201884284
:1029B00007D1FFE70F980068006800F0020004905C
:1029C00005E00F980068006800200490FFE7049875
:1029D00070B1FFE70F98C06D00F01F010420884020
:1029E000099988600F99486D40F004004865FFE739
:1029F000FFE70E980F99C96D01F01F01C840C0068E
:102A0000002840F1DE80FFE70F9800681021C4F233
:102A10000201884200F08180FFE70F9800682821BA
:102A2000C4F20201884278D0FFE70F980068402185
:102A3000C4F20201884270D0FFE70F980068582165
:102A4000C4F20201884268D0FFE70F980068702145
:102A5000C4F20201884260D0FFE70F980068882125
:102A6000C4F20201884258D0FFE70F980068A02105
:102A7000C4F20201884250D0FFE70F980068B821E5
:102A8000C4F20201884248D0FFE70F98006840F284
:102A90001041C4F2020188423FD0FFE70F9800685E
:102AA00040F22841C4F20201884236D0FFE70F9875
:102AB000006840F24041C4F2020188422DD0FFE795
:102AC0000F98006840F25841C4F20201884224D0B5
:102AD000FFE70F98006840F27041C4F2020188429B
:102AE0001BD0FFE70F98006840F28841C4F2020152
:102AF000884212D0FFE70F98006840F2A041C4F26C
:102B00000201884209D0FFE70F98006840F2B841FF
:102B1000C4F20201884207D1FFE70F9800680068FD
:102B200000F00800039006E00F980068006800F0CD
:102B300004000390FFE70398002841D0FFE70F98B7
:102B4000C06D00F01F0110208840099988600F981F
:102B500000680068400300281AD5FFE70F98006856
:102B600000680003002809D4FFE70F98006C20B12B
:102B7000FFE70F98016C8847FFE708E00F98806C2B
:102B800020B1FFE70F98816C8847FFE7FFE716E069
:102B90000F9800680068C005002807D4FFE70F9869
:102BA0000168086820F008000860FFE70F98006CD3
:102BB00020B1FFE70F98016C8847FFE7FFE7FFE7C9
:102BC000FFE70E980F99C96D01F01F01C8408006FC
:102BD000002840F12681FFE70F9800681021C4F219
:102BE0000201884200F08180FFE70F9800682821E9
:102BF000C4F20201884278D0FFE70F9800684021B4
:102C0000C4F20201884270D0FFE70F980068582193
:102C1000C4F20201884268D0FFE70F980068702173
:102C2000C4F20201884260D0FFE70F980068882153
:102C3000C4F20201884258D0FFE70F980068A02133
:102C4000C4F20201884250D0FFE70F980068B82113
:102C5000C4F20201884248D0FFE70F98006840F2B2
:102C60001041C4F2020188423FD0FFE70F9800688C
:102C700040F22841C4F20201884236D0FFE70F98A3
:102C8000006840F24041C4F2020188422DD0FFE7C3
:102C90000F98006840F25841C4F20201884224D0E3
:102CA000FFE70F98006840F27041C4F202018842C9
:102CB0001BD0FFE70F98006840F28841C4F2020180
:102CC000884212D0FFE70F98006840F2A041C4F29A
:102CD0000201884209D0FFE70F98006840F2B8412E
:102CE000C4F20201884207D1FFE70F98006800682C
:102CF00000F01000029006E00F980068006800F0F5
:102D000002000290FFE70298002800F08980FFE7A8
:102D10000F98C06D00F01F0120208840099988603D
:102D20000F9890F83500042837D1FFE70F98016815
:102D3000086820F0160008600F980168486920F0C4
:102D4000800048610F98006C20B9FFE70F98806CF5
:102D500038B1FFE70F980168086820F008000860A4
:102D6000FFE70F98C06D00F01F013F2088400999D0
:102D700088600F99012081F83500FFE70F99002046
:102D800081F83400FFE70F98006D20B1FFE70F983E
:102D9000016D8847FFE700F019BC0F9800680068D4
:102DA000400300281AD5FFE70F9800680068000369
:102DB000002809D4FFE70F98406C20B1FFE70F9877
:102DC000416C8847FFE708E00F98C06B20B1FFE730
:102DD0000F98C16B8847FFE7FFE720E00F98006876
:102DE0000068C005002811D4FFE70F980168086843
:102DF00020F0100008600F99012081F83500FFE7EE
:102E00000F99002081F83400FFE7FFE70F98C06BAF
:102E100020B1FFE70F98C16B8847FFE7FFE7FFE7A7
:102E2000FFE70F98406D002800F0D480FFE70F986F
:102E3000406DC007002800F0C480FFE70F99042010
:102E400081F835000F9800681021C4F20201884211
:102E500000F08180FFE70F9800682821C4F202018A
:102E6000884278D0FFE70F9800684021C4F2020141
:102E7000884270D0FFE70F9800685821C4F2020121
:102E8000884268D0FFE70F9800687021C4F2020101
:102E9000884260D0FFE70F9800688821C4F20201E1
:102EA000884258D0FFE70F980068A021C4F20201C1
:102EB000884250D0FFE70F980068B821C4F20201A1
:102EC000884248D0FFE70F98006840F21041C4F2F2
:102ED000020188423FD0FFE70F98006840F2284186
:102EE000C4F20201884236D0FFE70F98006840F232
:102EF0004041C4F2020188422DD0FFE70F980068DC
:102F000040F25841C4F20201884224D0FFE70F98F2
:102F1000006840F27041C4F2020188421BD0FFE712
:102F20000F98006840F28841C4F20201884212D032
:102F3000FFE70F98006840F2A041C4F20201884206
:102F400009D0FFE70F98006840F2B841C4F20201CF
:102F5000884207D1FFE70F980168086820F0010058
:102F6000086006E00F980168086820F0010008601A
:102F7000FFE7FFE70B9801300B900A99884201D9CF
:102F8000FFE707E0FFE70F9800680068C007002828
:102F9000F0D1FFE70F9800680068C00728B1FFE78D
:102FA0000F99032081F8350004E00F99012081F882
:102FB0003500FFE7FFE70F99002081F83400FFE7B5
:102FC000FFE70F98C06C20B1FFE70F98C16C8847EE
:102FD000FFE7FFE7FAE20F980168012045F2084297
:102FE000C5F60202914201904ED0FFE70F980168AA
:102FF000012045F21C42C5F602029142019043D0E5
:10300000FFE70F980168012045F23042C5F6020241
:103010009142019038D0FFE70F980168012045F2F6
:103020004442C5F60202914201902DD0FFE70F986D
:103030000168012045F25842C5F602029142019012
:1030400022D0FFE70F980168012045F26C42C5F6D7
:1030500002029142019017D0FFE70F98016801200A
:1030600045F28042C5F60202914201900CD0FFE782
:103070000F9800684AF66C31CAF2FD710844B0FA44
:1030800080F040090190FFE70198C007002800F098
:103090009B82FFE70F98006800680C900D980F99CD
:1030A000C96D01F01F01C8404007002840F1D780DA
:1030B000FFE79DF830004007002840F1D080FFE78F
:1030C0000F98C06D00F01F010420884008994860E7
:1030D0009DF831000006002818D5FFE79DF8320062
:1030E000C00748B9FFE70F98806C20B1FFE70F9841
:1030F000816C8847FFE708E00F98006C20B1FFE77C
:103100000F98016C8847FFE7FFE7A7E09DF83000C4
:103110008006002800F19980FFE70F9800681021D1
:10312000C4F20201884200F08180FFE70F98006836
:103130002821C4F20201884278D0FFE70F98006886
:103140004021C4F20201884270D0FFE70F98006866
:103150005821C4F20201884268D0FFE70F98006846
:103160007021C4F20201884260D0FFE70F98006826
:103170008821C4F20201884258D0FFE70F98006806
:10318000A021C4F20201884250D0FFE70F980068E6
:10319000B821C4F20201884248D0FFE70F980068C6
:1031A00040F21041C4F2020188423FD0FFE70F987D
:1031B000006840F22841C4F20201884236D0FFE79D
:1031C0000F98006840F24041C4F2020188422DD0BD
:1031D000FFE70F98006840F25841C4F202018842AC
:1031E00024D0FFE70F98006840F27041C4F202015A
:1031F00088421BD0FFE70F98006840F28841C4F274
:103200000201884212D0FFE70F98006840F2A04107
:10321000C4F20201884209D0FFE70F98006840F22B
:10322000B841C4F20201884207D1FFE70F98016854
:10323000086820F00800086006E00F980168086838
:1032400020F004000860FFE7FFE70F98006C20B152
:10325000FFE70F98016C8847FFE7FFE7B3E10D98A0
:103260000F99C96D01F01F01C8408007002840F187
:10327000E180FFE79DF830008007002840F1DA8008
:10328000FFE70F98C06D00F01F01022088400899E9
:1032900048609DF831000006002818D5FFE79DF82A
:1032A0003200C00748B9FFE70F98406C20B1FFE734
:1032B0000F98416C8847FFE708E00F98C06B20B17A
:1032C000FFE70F98C16B8847FFE7FFE7B1E09DF884
:1032D00030008006002800F1A380FFE70F98006807
:1032E0001021C4F20201884200F08180FFE70F98AC
:1032F00000682821C4F20201884278D0FFE70F98C5
:1033000000684021C4F20201884270D0FFE70F98A4
:1033100000685821C4F20201884268D0FFE70F9884
:1033200000687021C4F20201884260D0FFE70F9864
:1033300000688821C4F20201884258D0FFE70F9844
:103340000068A021C4F20201884250D0FFE70F9824
:103350000068B821C4F20201884248D0FFE70F9804
:10336000006840F21041C4F2020188423FD0FFE7FA
:103370000F98006840F22841C4F20201884236D01A
:10338000FFE70F98006840F24041C4F20201884212
:103390002DD0FFE70F98006840F25841C4F20201B7
:1033A000884224D0FFE70F98006840F27041C4F2D1
:1033B000020188421BD0FFE70F98006840F2884165
:1033C000C4F20201884212D0FFE70F98006840F271
:1033D000A041C4F20201884209D0FFE70F980068BB
:1033E00040F2B841C4F20201884207D1FFE70F98CA
:1033F0000168086820F01400086006E00F98016872
:10340000086820F00A000860FFE70F99012081F8A2
:103410003500FFE70F99002081F83400FFE7FFE750
:103420000F98C06B20B1FFE70F98C16B8847FFE78B
:10343000FFE7C7E00D980F99C96D01F01F01C84063
:103440000007002840F1BC80FFE79DF8300000072E
:10345000002840F1B580FFE70F9800681021C4F202
:103460000201884200F08180FFE70F980068282160
:10347000C4F20201884278D0FFE70F98006840212B
:10348000C4F20201884270D0FFE70F98006858210B
:10349000C4F20201884268D0FFE70F9800687021EB
:1034A000C4F20201884260D0FFE70F9800688821CB
:1034B000C4F20201884258D0FFE70F980068A021AB
:1034C000C4F20201884250D0FFE70F980068B8218B
:1034D000C4F20201884248D0FFE70F98006840F22A
:1034E0001041C4F2020188423FD0FFE70F98006804
:1034F00040F22841C4F20201884236D0FFE70F981B
:10350000006840F24041C4F2020188422DD0FFE73A
:103510000F98006840F25841C4F20201884224D05A
:10352000FFE70F98006840F27041C4F20201884240
:103530001BD0FFE70F98006840F28841C4F20201F7
:10354000884212D0FFE70F98006840F2A041C4F211
:103550000201884209D0FFE70F98006840F2B841A5
:10356000C4F20201884207D1FFE70F98016808689A
:1035700020F01C00086006E00F980168086820F041
:103580000E000860FFE70F98C06D00F01F010120DA
:1035900000FA01F1089A51600F9948650F9981F876
:1035A0003500FFE70F99002081F83400FFE70F98FE
:1035B000C06C20B1FFE70F98C16C8847FFE700E0BF
:1035C000FFE7FFE7FFE700E0FFE7FFE710B080BDA0
:1035D00010B58EB00C9001F003FA0A900C9828B93F
:1035E000FFE701208DF8370000F09EBC0C980168C1
:1035F00001201022C4F202029142079000F0A38041
:10360000FFE70C98016801202822C4F202029142CF
:10361000079000F09880FFE70C9801680120402295
:10362000C4F202029142079000F08D80FFE70C98EF
:10363000016801205822C4F202029142079000F072
:103640008280FFE70C98016801207022C4F2020218
:103650009142079077D0FFE70C98016801208822FB
:10366000C4F20202914207906DD0FFE70C98016806
:103670000120A022C4F202029142079063D0FFE72A
:103680000C9801680120B822C4F20202914207900E
:1036900059D0FFE70C980168012040F21042C4F2B3
:1036A0000202914207904ED0FFE70C98016801207A
:1036B00040F22842C4F202029142079043D0FFE751
:1036C0000C980168012040F24042C4F2020291428B
:1036D000079038D0FFE70C980168012040F258426B
:1036E000C4F20202914207902DD0FFE70C980168C6
:1036F000012040F27042C4F202029142079022D0AF
:10370000FFE70C980168012040F28842C4F20202EF
:103710009142079017D0FFE70C980168012040F212
:10372000A042C4F20202914207900CD0FFE70C982D
:1037300000684FF64831CBF6FD710844B0FA80F0CE
:1037400040090790FFE70798C007002800F078813C
:10375000FFE70C98406A08B1FFE7FFE70C990220E9
:1037600081F83500FFE70C99002081F83400FFE76D
:103770000C9800681021C4F20201884200F0818098
:10378000FFE70C9800682821C4F20201884278D033
:10379000FFE70C9800684021C4F20201884270D013
:1037A000FFE70C9800685821C4F20201884268D0F3
:1037B000FFE70C9800687021C4F20201884260D0D3
:1037C000FFE70C9800688821C4F20201884258D0B3
:1037D000FFE70C980068A021C4F20201884250D093
:1037E000FFE70C980068B821C4F20201884248D073
:1037F000FFE70C98006840F21041C4F202018842D1
:103800003FD0FFE70C98006840F22841C4F2020163
:10381000884236D0FFE70C98006840F24041C4F27D
:10382000020188422DD0FFE70C98006840F2584111
:10383000C4F20201884224D0FFE70C98006840F2ED
:103840007041C4F2020188421BD0FFE70C98006867
:1038500040F28841C4F20201884212D0FFE70C987E
:10386000006840F2A041C4F20201884209D0FFE79B
:103870000C98006840F2B841C4F20201884207D1B6
:10388000FFE70C980168086820F00100086006E076
:103890000C980168086820F001000860FFE7FFE766
:1038A0000C9800680068C00798B1FFE701F098F82D
:1038B0000A99401A06280BD3FFE70C992020486587
:1038C0000C99032081F8350001208DF837002BE397
:1038D000E6E70C98006800680B900B9848F23F01EF
:1038E000CFF6106108400B900C998868D1F80CC095
:1038F0000B694A6940EA0C00184310438A69104377
:10390000CA691043096A01430B9808430B900C984D
:10391000406A042808D1FFE70C99C86A096B014383
:103920000B9808430B90FFE70C984068292807D3B1
:10393000FFE70C98416801202F29069036D3FFE756
:103940000C9840683F2807D3FFE70C984168012096
:10395000432906902AD3FFE70C984068472807D3ED
:10396000FFE70C9841680120492906901ED3FFE724
:103970000C9840684F2807D3FFE70C984168012056
:103980005329069012D3FFE70C9841680020742950
:10399000059008D3FFE70C9841680020782938BFCC
:1039A00001200590FFE705980690FFE70698C007FD
:1039B00028B1FFE70B9840F480100B90FFE70B98BD
:1039C0000C99096808600C98006840690B900B9886
:1039D00020F007000B900C98416A0B9808430B905D
:1039E0000C98406A04281AD1FFE70C98816A0B985A
:1039F00008430B900C98C06A80B1FFE70C98FDF764
:103A0000BBF950B1FFE70C99402048650C990120A3
:103A100081F835008DF8370086E2FFE7FFE70B9865
:103A20000C99096848610C98FCF76AFF09900C989A
:103A3000C06D00F01F013F2088400999886026E191
:103A40000C980168012045F20842C5F60202914235
:103A500004904ED0FFE70C980168012045F21C420B
:103A6000C5F602029142049043D0FFE70C9801682A
:103A7000012045F23042C5F602029142049038D04E
:103A8000FFE70C980168012045F24442C5F60202A6
:103A9000914204902DD0FFE70C980168012045F277
:103AA0005842C5F602029142049022D0FFE70C98DA
:103AB0000168012045F26C42C5F602029142049071
:103AC00017D0FFE70C980168012045F28042C5F647
:103AD0000202914204900CD0FFE70C9800684AF66D
:103AE0006C31CAF2FD710844B0FA80F040090490CC
:103AF000FFE70498C007002800F0BD80FFE70C989E
:103B00000168012045F20842C5F602029142039085
:103B10004ED0FFE70C980168012045F21C42C5F623
:103B200002029142039043D0FFE70C980168012004
:103B300045F23042C5F602029142039038D0FFE7C9
:103B40000C980168012045F24442C5F602029142F8
:103B500003902DD0FFE70C980168012045F25842F0
:103B6000C5F602029142039022D0FFE70C9801684B
:103B7000012045F26C42C5F602029142039017D033
:103B8000FFE70C980168012045F28042C5F6020269
:103B9000914203900CD0FFE70C9800684AF66C3114
:103BA000CAF2FD710844B0FA80F040090390FFE7C3
:103BB0000398C00708B1FFE7FFE70C99022081F8DE
:103BC0003500FFE70C99002081F83400FFE70C98DE
:103BD000006800680B900B986FF310100B900C9816
:103BE0008068402803D1FFE71020029008E00C987D
:103BF00080688038B0FA80F0400980030290FFE7C7
:103C000002980C99CA680B69D1F814C0D1F818E071
:103C1000CC694EEA040E4CEA0E0C43EA0C031A433C
:103C200040EAD200096A40EA11110B9808430B9050
:103C30000B980C99096808600C9908684AF6F832E4
:103C4000CAF2FD7210444CF6CD42CCF6CC42A0FB39
:103C500002026FF0030000EA9200C8650C98FCF7BE
:103C60004FFE08900C98C06D00F01F0101208840A5
:103C7000089948600AE00C99402048650C99032097
:103C800081F8350001208DF837004DE1FFE70C98F1
:103C9000016801201022C4F202029142019000F05A
:103CA0000381FFE70C98016801202822C4F2020278
:103CB0009142019000F0F880FFE70C980168012024
:103CC0004022C4F202029142019000F0ED80FFE731
:103CD0000C98016801205822C4F20202914201901E
:103CE00000F0E280FFE70C98016801207022C4F226
:103CF00002029142019000F0D780FFE70C98016822
:103D000001208822C4F202029142019000F0CC808E
:103D1000FFE70C9801680120A022C4F20202914240
:103D2000019000F0C180FFE70C9801680120B822E3
:103D3000C4F202029142019000F0B680FFE70C98B5
:103D40000168012040F21042C4F202029142019047
:103D500000F0AA80FFE70C980168012040F2284299
:103D6000C4F202029142019000F09E80FFE70C989D
:103D70000168012040F24042C4F2020291420190E7
:103D800000F09280FFE70C980168012040F2584251
:103D9000C4F202029142019000F08680FFE70C9885
:103DA0000168012040F27042C4F202029142019087
:103DB0007AD0FFE70C980168012040F28842C4F2F3
:103DC0000202914201906FD0FFE70C980168012038
:103DD00040F2A042C4F202029142019064D0FFE797
:103DE0000C980168012040F2B842C4F202029142EC
:103DF000019059D0FFE70C980168012045F2084274
:103E0000C5F60202914201904ED0FFE70C9801687E
:103E1000012045F21C42C5F602029142019043D0B6
:103E2000FFE70C980168012045F23042C5F6020216
:103E30009142019038D0FFE70C980168012045F2CB
:103E40004442C5F60202914201902DD0FFE70C9842
:103E50000168012045F25842C5F6020291420190E4
:103E600022D0FFE70C980168012045F26C42C5F6AC
:103E700002029142019017D0FFE70C9801680120DF
:103E800045F28042C5F60202914201900CD0FFE754
:103E90000C9800684AF66C31CAF2FD710844B0FA19
:103EA00080F040090190FFE70198C00790B3FFE759
:103EB0000C98FCF70DFE0C988068802804D1FFE771
:103EC0000C9900204860FFE70C990879096E08609A
:103ED0000C98416E806E48600C98406888B1FFE78E
:103EE0000C98406808280CD8FFE70C98FCF7ACFE4B
:103EF0000C98C16E002008600C98016F406F4860FC
:103F000007E00C990020C8660C9908670C9948676F
:103F1000FFE7FFE70C99002048650C9A012182F821
:103F200035108DF83700FFE79DF837000EB010BD53
:103F300080B588B0069005910492039300208DF817
:103F40000B00069820B9FFE701208DF81F006CE3F5
:103F5000FFE7069890F83400012804D1FFE702201B
:103F60008DF81F0061E30699012081F83400FFE716
:103F7000FFE7069890F83500012840F04383FFE7FB
:103F80000699022081F835000699002048650698B8
:103F900000681021C4F20201884200F08180FFE72E
:103FA000069800682821C4F20201884278D0FFE711
:103FB000069800684021C4F20201884270D0FFE7F1
:103FC000069800685821C4F20201884268D0FFE7D1
:103FD000069800687021C4F20201884260D0FFE7B1
:103FE000069800688821C4F20201884258D0FFE791
:103FF00006980068A021C4F20201884250D0FFE771
:1040000006980068B821C4F20201884248D0FFE750
:104010000698006840F21041C4F2020188423FD085
:10402000FFE70698006840F22841C4F20201884286
:1040300036D0FFE70698006840F24041C4F2020122
:1040400088422DD0FFE70698006840F25841C4F23C
:104050000201884224D0FFE70698006840F27041D0
:10406000C4F2020188421BD0FFE70698006840F2C4
:104070008841C4F20201884212D0FFE70698006826
:1040800040F2A041C4F20201884209D0FFE706983D
:10409000006840F2B841C4F20201884207D1FFE74C
:1040A00006980168086820F00100086006E006989C
:1040B0000168086820F001000860FFE7069805998C
:1040C000049A039BFCF7D0FE069801680120102299
:1040D000C4F202029142019000F0A380FFE706982B
:1040E000016801202822C4F202029142019000F0EE
:1040F0009880FFE70698016801204022C4F202027E
:104100009142019000F08D80FFE706980168012040
:104110005822C4F202029142019000F08280FFE72F
:104120000698016801207022C4F2020291420190B7
:1041300077D0FFE70698016801208822C4F20202C6
:10414000914201906DD0FFE7069801680120A022FE
:10415000C4F202029142019063D0FFE70698016821
:104160000120B822C4F202029142019059D0FFE727
:1041700006980168012040F21042C4F20202914206
:1041800001904ED0FFE706980168012040F22842D6
:10419000C4F202029142019043D0FFE70698016801
:1041A000012040F24042C4F202029142019038D014
:1041B000FFE706980168012040F25842C4F202026B
:1041C000914201902DD0FFE706980168012040F24E
:1041D0007042C4F202029142019022D0FFE7069899
:1041E0000168012040F28842C4F20202914201902B
:1041F00017D0FFE706980168012040F2A042C4F200
:104200000202914201900CD0FFE7069800684FF639
:104210004831CBF6FD710844B0FA80F040090190B6
:10422000FFE70198C007A8B1FFE70698006800689B
:104230000B2161F344000699096808600698006C38
:1042400038B1FFE706980168086840F00800086088
:10425000FFE714E0069800680068052161F3430059
:104260000699096808600698006C38B1FFE706985F
:104270000168086840F004000860FFE7FFE706985F
:10428000016801201022C4F202029142009000F065
:104290000381FFE70698016801202822C4F2020288
:1042A0009142009000F0F880FFE706980168012035
:1042B0004022C4F202029142009000F0ED80FFE73C
:1042C0000698016801205822C4F20202914200902F
:1042D00000F0E280FFE70698016801207022C4F236
:1042E00002029142009000F0D780FFE70698016833
:1042F00001208822C4F202029142009000F0CC809A
:10430000FFE7069801680120A022C4F20202914250
:10431000009000F0C180FFE7069801680120B822F4
:10432000C4F202029142009000F0B680FFE70698C6
:104330000168012040F21042C4F202029142009052
:1043400000F0AA80FFE706980168012040F22842A9
:10435000C4F202029142009000F09E80FFE70698AE
:104360000168012040F24042C4F2020291420090F2
:1043700000F09280FFE706980168012040F2584261
:10438000C4F202029142009000F08680FFE7069896
:104390000168012040F27042C4F202029142009092
:1043A0007AD0FFE706980168012040F28842C4F203
:1043B0000202914200906FD0FFE706980168012049
:1043C00040F2A042C4F202029142009064D0FFE7A2
:1043D00006980168012040F2B842C4F202029142FC
:1043E000009059D0FFE706980168012045F2084285
:1043F000C5F60202914200904ED0FFE70698016890
:10440000012045F21C42C5F602029142009043D0C1
:10441000FFE706980168012045F23042C5F6020226
:104420009142009038D0FFE706980168012045F2DC
:104430004442C5F60202914200902DD0FFE7069853
:104440000168012045F25842C5F6020291420090EF
:1044500022D0FFE706980168012045F26C42C5F6BC
:1044600002029142009017D0FFE7069801680120F0
:1044700045F28042C5F60202914200900CD0FFE75F
:10448000069800684AF66C31CAF2FD710844B0FA29
:1044900080F040090090FFE70098C007D0B1FFE727
:1044A0000698006E0068C003002807D5FFE706984D
:1044B000016E086840F480700860FFE70698C06EDF
:1044C00038B1FFE70698C16E086840F48070086054
:1044D000FFE7FFE7069800681021C4F20201884256
:1044E00000F08180FFE7069800682821C4F20201ED
:1044F000884278D0FFE7069800684021C4F20201A4
:10450000884270D0FFE7069800685821C4F2020183
:10451000884268D0FFE7069800687021C4F2020163
:10452000884260D0FFE7069800688821C4F2020143
:10453000884258D0FFE706980068A021C4F2020123
:10454000884250D0FFE706980068B821C4F2020103
:10455000884248D0FFE70698006840F21041C4F254
:10456000020188423FD0FFE70698006840F22841E8
:10457000C4F20201884236D0FFE70698006840F294
:104580004041C4F2020188422DD0FFE7069800683E
:1045900040F25841C4F20201884224D0FFE7069855
:1045A000006840F27041C4F2020188421BD0FFE76C
:1045B0000698006840F28841C4F20201884212D095
:1045C000FFE70698006840F2A041C4F20201884269
:1045D00009D0FFE70698006840F2B841C4F2020132
:1045E000884207D1FFE706980168086840F001009B
:1045F000086006E006980168086840F0010008605D
:10460000FFE70DE006994FF400604865FFE7069963
:10461000002081F83400FFE701208DF80B00FFE750
:104620009DF80B008DF81F00FFE79DF81F0008B0F4
:1046300080BD0000000000008FB00E900D910020A2
:104640000C908020C5F600000990FFE70D980068E7
:104650000C99C840002800F0C181FFE70D98006860
:104660000C9A0121914008400B900B98002800F013
:10467000B181FFE70D98406800F00300012807D0E2
:10468000FFE70D98406800F0030002282FD1FFE7F4
:104690000E9880680A900C984100032000FA01F1FE
:1046A0000A9888430A900D98C0680C99490000FA4E
:1046B00001F10A9808430A900A980E9988600E98AA
:1046C00040680A900C99012000FA01F10A98884389
:1046D0000A900D984068C0F300100C9900FA01F19F
:1046E0000A9808430A900A980E994860FFE70D98C7
:1046F000406800F00300032818D0FFE70E98C06858
:104700000A900C984100032000FA01F10A988843AE
:104710000A900D9880680C99490000FA01F10A98F6
:1047200008430A900A980E99C860FFE70D98406800
:1047300000F00300022826D1FFE70E980C996FF0D5
:10474000030202EA51010844006A0A900C9800F042
:10475000070081000F2000FA01F10A9888430A90AF
:104760000D9800690C9901F00701890000FA01F128
:104770000A9808430A900A980E990C9B02EA530281
:1047800011440862FFE70E9800680A900C984100F7
:10479000032000FA01F10A9888430A900D984068B6
:1047A00000F003000C99490000FA01F10A9808434F
:1047B0000A900A980E9908600D9880798007002861
:1047C00000F00781FFE7FFE744F2F440C5F602007E
:1047D000016841F002010160006800F002000890E9
:1047E0000898FFE70C9820F0030040F20841C5F656
:1047F000000140580A900C9800F0030081000F203F
:1048000000FA01F10A9888430A900E980021C5F633
:104810000201884203D1FFE7002007906CE00E9868
:1048200040F20041C5F60201884203D1FFE70120B2
:1048300006905EE00E9840F60001C5F6020188423F
:1048400003D1FFE70220059050E00E9840F60041AA
:10485000C5F60201884203D1FFE70320049042E03D
:104860000E9841F20001C5F60201884203D1FFE72C
:104870000420039034E00E9841F20041C5F6020195
:10488000884203D1FFE70520029026E00E9841F60A
:104890000001C5F60201884203D1FFE7062001901E
:1048A00018E00E9841F60041C5F60201884203D196
:1048B000FFE7072000900AE00E9942F20042C5F699
:1048C00002020A20914208BF09200090FFE70098E9
:1048D0000190FFE701980290FFE702980390FFE73D
:1048E00003980490FFE704980590FFE70598069069
:1048F000FFE706980790FFE707980C9901F003017E
:10490000890000FA01F10A9808430A900A980C9964
:1049100021F0030140F20842C5F6000288504FF032
:10492000B04000680A900B990A9888430A900D9845
:104930008079C006002805D5FFE70B990A9808433F
:104940000A90FFE70A984FF0B04108600420C5F6CE
:10495000000000680A900B990A9888430A900D9805
:1049600080798006002805D5FFE70B990A9808434F
:104970000A90FFE70A980421C5F60001086009982B
:1049800040680A900B990A9888430A900D9880799C
:104990008007002805D5FFE70B990A9808430A907D
:1049A000FFE70A9809994860099800680A900B99EE
:1049B0000A9888430A900D988079C00728B1FFE7CC
:1049C0000B990A9808430A90FFE70A98099908602A
:1049D000FFE7FFE70C9801300C9037E60FB0704707
:1049E00041F6E830C2F20040006870470000000065
:1049F00040F20800C2F20040027841F6E831C2F20B
:104A00000041086810440860704700000000000082
:104A100080B582B0032000F02FF901F0CDFE44F202
:104A20001842C5F602021168C1F303234FF23001A8
:104A3000C0F60001CB5C03F01F03D8400090009843
:104A4000126802F00F02895C01F01F01C84040F2B9
:104A50000401C2F200410860009840F20001C2F275
:104A6000004108600F2000F013F820B1FFE701209B
:104A70008DF8070005E000F0BBF800208DF8070076
:104A8000FFE79DF8070002B080BD000000000000B5
:104A900080B582B0009040F20800C2F20040007879
:104AA00020B9FFE701208DF8070030E040F2000058
:104AB000C2F20040006840F20801C2F200410A78E8
:104AC0004FF47A71B1FBF2F1B0FBF1F002F004FDAA
:104AD00020B1FFE701208DF8070018E000980F28AB
:104AE0000DD8FFE700994FF0FF30002200F0ACF83E
:104AF000009840F20C01C2F20041086003E001207E
:104B00008DF8070003E000208DF80700FFE79DF80F
:104B1000070002B080BD000010B581B00090009881
:104B200040784EF69851CEF2000108604EF6A05142
:104B3000CEF20001086820F001000860009840688B
:104B40004EF69C52CEF200021060DDF800E09EF8B6
:104B50000C0000079EF80B2040EA02609EF800203F
:104B60009EF808309EF809C09EF80A4040EAC4400A
:104B70009EF80D4040EA84409EF80E4040EA4440D2
:104B80009EF80FE040EA0E4040EA0C2040EA430065
:104B90001043086001B010BDBFF35F8F4EF6245183
:104BA000CEF20001086820F4803008604EF694517F
:104BB000CEF20001002008607047000000000000F5
:104BC00081B00090009840F001004EF69451CEF272
:104BD000000108604EF62451CEF20001086840F44E
:104BE00080300860BFF34F8FBFF36F8F01B0704705
:104BF00081B0FFE744F2F440C5F60200016841F0DD
:104C000002010160006800F0020000900098FFE7D8
:104C100001B070470000000080B582B0ADF806001A
:104C2000BDF906000AF0B0F802B080BD0000000037
:104C300080B582B0ADF80600BDF906000AF0C0F8F4
:104C400002B080BD0000000080B586B0ADF816004F
:104C5000049103920AF0CCF80290BDF9160001907D
:104C600002980499039A05F07BFE014601980AF028
:104C7000C7F806B080BD000080B582B001900198F1
:104C80000AF0E2F802B080BD80B584B0029044F62C
:104C90000C00C5F60200006800F004010020B0EB33
:104CA000910F13D1FFE744F60C00C5F6020000682F
:104CB00000F007000299884204D0FFE701208DF838
:104CC0000F002EE000208DF80F002AE044F60C01C2
:104CD000C5F60201086820F00700029A1043086038
:104CE000FFF77EFE0190FFE744F60400C5F60200E0
:104CF000006800F400510020B0EB513F0DD1FFE7F8
:104D0000FFF76EFE0199401AB0F57A7F04D9FFE7EC
:104D100001208DF80F0004E0E6E700208DF80F0079
:104D2000FFE79DF80F0004B080BD00000000000008
:104D300080B501F0EDFC44F22041C5F6020109689E
:104D4000C1F302124FF23001C0F60001895C01F09C
:104D50001F01C84080BD000088B0079044F2284081
:104D6000C5F60200016801F0030106910068C0F376
:104D70000530059044F22C40C5F602000068C0F3EF
:104D800000100490049844F23C41C5F60201096801
:104D900089B2C908484300EE100AB8EE400A8DED0A
:104DA000020A0598002800F01181FFE7069800909C
:104DB00048B1FFE70098012865D0FFE70098022876
:104DC00000F08380A3E044F20040C5F602000068D2
:104DD00000F020010020B0EB511F31D0FFE744F27A
:104DE0000040C5F602000068C0F3C10149F20000AE
:104DF000C0F2D030C84003909DED030AB8EE400ADF
:104E00009DED051AB8EE411A80EE010A44F23840D1
:104E1000C5F6020000686FF35F2001EE100AB8EEDD
:104E2000411A9DED022A9FED6F3A02EE031AB7EE8A
:104E3000002A31EE021A20EE010A8DED010A21E06E
:104E40009DED050AB8EE401A9FED680A80EE010A52
:104E500044F23840C5F6020000686FF35F2001EEAF
:104E6000100AB8EE411A9DED022A9FED5E3A02EE5D
:104E7000031AB7EE002A31EE021A20EE010A8DED78
:104E8000010AFFE765E09DED050AB8EE401A9FEDC7
:104E9000560A80EE010A44F23840C5F60200006866
:104EA0006FF35F2001EE100AB8EE411A9DED022A61
:104EB0009FED4C3A02EE031AB7EE002A31EE021AC9
:104EC00020EE010A8DED010A43E09DED050AB8EEE2
:104ED000401A9FED430A80EE010A44F23840C5F6BD
:104EE000020000686FF35F2001EE100AB8EE411A6D
:104EF0009DED022A9FED3B3A02EE031AB7EE002A1F
:104F000031EE021A20EE010A8DED010A21E09DED3D
:104F1000050AB8EE401A9FED340A80EE010A44F209
:104F20003840C5F6020000686FF35F2001EE100AFA
:104F3000B8EE411A9DED022A9FED2A3A02EE031ABD
:104F4000B7EE002A31EE021A20EE010A8DED010AB9
:104F5000FFE79DED010A44F23840C5F60200016802
:104F600089B2490A01EE101AB8EE411AB7EE002ACA
:104F700031EE021A80EE010A0799BCEEC00A81EDFB
:104F8000000A9DED010A0168C1F3064101EE101A05
:104F9000B8EE411A31EE021A80EE010A0799BCEE12
:104FA000C00A81ED010A9DED010A0068C0F30660A8
:104FB00001EE100AB8EE411A31EE021A80EE010A33
:104FC0000798BCEEC00A80ED020A07E007990020AE
:104FD00008600799486007998860FFE708B0704744
:104FE00020BCBE4B000000390024744A0024744CDD
:104FF00088B0079044F22840C5F60200016801F02D
:10500000030106910068C0F30550059044F22C405E
:10501000C5F602000068C0F300200490049844F232
:105020004441C5F60201096889B2C908484300EE47
:10503000100AB8EE400A8DED020A0598002800F02B
:105040001181FFE70698009048B1FFE7009801281A
:1050500065D0FFE70098022800F08380A3E044F2C7
:105060000040C5F60200006800F020010020B0EB0F
:10507000511F31D0FFE744F20040C5F6020000683E
:10508000C0F3C10149F20000C0F2D030C840039023
:105090009DED030AB8EE400A9DED051AB8EE411ADF
:1050A00080EE010A44F24040C5F6020000686FF34A
:1050B0005F2001EE100AB8EE411A9DED022A9FED25
:1050C0006F3A02EE031AB7EE002A31EE021A20EE12
:1050D000010A8DED010A21E09DED050AB8EE401AA6
:1050E0009FED680A80EE010A44F24040C5F60200D6
:1050F00000686FF35F2001EE100AB8EE411A9DEDD3
:10510000022A9FED5E3A02EE031AB7EE002A31EE54
:10511000021A20EE010A8DED010AFFE765E09DED20
:10512000050AB8EE401A9FED560A80EE010A44F2D5
:105130004040C5F6020000686FF35F2001EE100AE0
:10514000B8EE411A9DED022A9FED4C3A02EE031A89
:10515000B7EE002A31EE021A20EE010A8DED010AA7
:1051600043E09DED050AB8EE401A9FED430A80EE3C
:10517000010A44F24040C5F6020000686FF35F2068
:1051800001EE100AB8EE411A9DED022A9FED3B3A5E
:1051900002EE031AB7EE002A31EE021A20EE010ADF
:1051A0008DED010A21E09DED050AB8EE401A9FED54
:1051B000340A80EE010A44F24040C5F6020000685D
:1051C0006FF35F2001EE100AB8EE411A9DED022A3E
:1051D0009FED2A3A02EE031AB7EE002A31EE021AC8
:1051E00020EE010A8DED010AFFE79DED010A44F270
:1051F0004040C5F60200016889B2490A01EE101A62
:10520000B8EE411AB7EE002A31EE021A80EE010A1A
:105210000799BCEEC00A81ED000A9DED010A016804
:10522000C1F3064101EE101AB8EE411A31EE021A2E
:1052300080EE010A0799BCEEC00A81ED010A9DEDDE
:10524000010A0068C0F3066001EE100AB8EE411AC8
:1052500031EE021A80EE010A0798BCEEC00A80ED1A
:10526000020A07E00799002008600799486007993B
:105270008860FFE708B0704720BCBE4B00000039D3
:105280000024744A0024744C80B59AB01890002011
:105290008DF857008DF856001898C0780007002840
:1052A00048D5FFE71898406E149078B1FFE714983E
:1052B000B0F5801F13D0FFE71498B0F5001F16D08B
:1052C000FFE71498B0F5401F19D019E044F22C41C3
:1052D000C5F60201086840F40030086014E0189830
:1052E0000830022105F078FB8DF857000CE0189883
:1052F0002830022105F058FC8DF8570004E003E047
:1053000001208DF85700FFE79DF8570060B9FFE7CF
:1053100044F25041C5F60201086820F44010189A82
:10532000526E1043086004E09DF857008DF8560057
:10533000FFE7FFE718984078C007002840D0FFE754
:105340001898806D1390042820D81399DFE801F095
:10535000030C141C1D0044F22C41C5F60201086820
:1053600040F40030086015E018980830002105F07E
:1053700033FB8DF857000DE018982830002105F018
:1053800013FC8DF8570005E004E003E001208DF8E0
:105390005700FFE79DF8570060B9FFE744F250411E
:1053A000C5F60201086820F00700189A926D1043B4
:1053B000086004E09DF857008DF85600FFE7FFE70E
:1053C000189840784007002856D5FFE71898D0F87D
:1053D000A4001290C8B1FFE71298B0F5001F1DD0CD
:1053E000FFE71298B0F5800F20D0FFE71298B0F5D4
:1053F000C00F23D0FFE71298B0F5000F1FD0FFE7D2
:105400001298B0F5200F1BD01BE044F22C41C5F6DA
:105410000201086840F40030086016E0189808306F
:10542000002105F0D9FA8DF857000EE018982830C1
:10543000002105F0B9FB8DF8570006E005E004E017
:1054400003E001208DF85700FFE79DF8570068B989
:10545000FFE744F25841C5F60201086820F46000F5
:10546000189AD2F8A4201043086004E09DF8570071
:105470008DF85600FFE7FFE71898407800070028EE
:1054800056D5FFE71898D0F8A8001190C8B1FFE7EB
:105490001198B0F1807F1DD0FFE71198B0F1007F27
:1054A00020D0FFE71198B0F1407F23D0FFE711989B
:1054B000B0F1806F1FD0FFE71198B0F1A06F1BD043
:1054C0001BE044F22C41C5F60201086840F40030AC
:1054D000086016E018980830002105F07DFA8DF874
:1054E00057000EE018982830002105F05DFB8DF87C
:1054F000570006E005E004E003E001208DF85700C6
:10550000FFE79DF8570068B9FFE744F25841C5F638
:105510000201086820F0E060189AD2F8A820104331
:10552000086004E09DF857008DF85600FFE7FFE79C
:105530001898C078800700283ED5FFE71898C06CFF
:105540001090F0B1FFE71098102808D0FFE71098EE
:1055500020280DD0FFE71098302811D012E044F237
:105560002C41C5F60201086840F4003008600DE0E7
:1055700018980830022105F02FFA8DF8570005E041
:1055800004E003E001208DF85700FFE79DF8570085
:1055900060B9FFE744F24C41C5F60201086820F00B
:1055A0003000189AD26C1043086004E09DF8570050
:1055B0008DF85600FFE7FFE718984078C0060028EE
:1055C0004ED5FFE71898C06D0F90A0B1FFE70F9878
:1055D000B0F5805F18D0FFE70F98B0F5005F1BD0E3
:1055E000FFE70F98B0F5405F1ED0FFE70F98B0F5CA
:1055F000804F1AD01AE044F22C41C5F60201086827
:1056000040F40030086015E018980830002105F0DB
:10561000E3F98DF857000DE018982830002105F0C7
:10562000C3FA8DF8570005E004E003E001208DF88F
:105630005700FFE79DF8570060B9FFE744F250417B
:10564000C5F60201086820F4E040189AD26D1043B4
:10565000086004E09DF857008DF85600FFE7FFE76B
:1056600018984078800600284CD5FFE71898006EFF
:105670000E90C8B1FFE70E98B0F5803F15D0FFE758
:105680000E98B0F5003F18D0FFE70E98B0F5403FF8
:105690001BD0FFE70E98B0F5802F17D0FFE70E98CC
:1056A000B0F5A02F13D013E016E0189808300121B0
:1056B00005F092F98DF857000EE018982830012176
:1056C00005F072FA8DF8570006E005E004E003E00B
:1056D00001208DF85700FFE79DF8570060B9FFE7FC
:1056E00044F25041C5F60201086820F4E020189AFF
:1056F000126E1043086004E09DF857008DF85600C4
:10570000FFE7FFE718984078400600284ED5FFE7EE
:105710001898D0F8AC000D90C8B1FFE70D98B0F123
:10572000805F15D0FFE70D98B0F1005F18D0FFE75C
:105730000D98B0F1405F1BD0FFE70D98B0F1804F9E
:1057400017D0FFE70D98B0F1A04F13D013E016E08B
:1057500018980830012105F03FF98DF857000EE048
:1057600018982830012105F01FFA8DF8570006E03F
:1057700005E004E003E001208DF85700FFE79DF805
:10578000570068B9FFE744F25841C5F602010868BE
:1057900020F0E040189AD2F8AC201043086004E0F2
:1057A0009DF857008DF85600FFE7FFE718984078FE
:1057B000000600283BD5FFE71898C06E0C90D8B1C2
:1057C000FFE70C98B0F1805F05D0FFE70C98B0F1CF
:1057D000005F09D011E044F22C41C5F602010868CF
:1057E00040F4003008600CE018980830012105F002
:1057F000F3F88DF8570004E003E001208DF857001E
:10580000FFE79DF8570060B9FFE744F25041C5F645
:105810000201086820F04050189AD26E10430860C8
:1058200004E09DF857008DF85600FFE7FFE7189851
:10583000C078C007002837D0FFE71898806C0B901D
:10584000032817D80B99DFE801F014020B1344F278
:105850002C41C5F60201086840F4003008600DE0F4
:1058600018980830022105F0B7F88DF8570005E0C8
:1058700004E003E001208DF85700FFE79DF8570092
:1058800060B9FFE744F24C41C5F60201086820F018
:105890000300189A926C1043086004E09DF85700CA
:1058A0008DF85600FFE7FFE718988078400600283B
:1058B00040F1B480FFE744F60001C5F60201086834
:1058C00040F480700860FFF78BF81690FFE744F60D
:1058D0000000C5F602000068C00500280CD4FFE7F0
:1058E000FFF77EF81699401A652804D3FFE70320D6
:1058F0008DF8570000E0EAE79DF85700002840F0D7
:105900008780FFE744F27040C5F60200006800F4AB
:1059100040701899D1F8B01001F44071884213D04A
:10592000FFE744F27041C5F60201086820F44070B8
:105930001790086840F480300860086820F48030D0
:10594000086017980860FFE71898D0F8B000B0F525
:10595000807F1FD1FFE7FFF743F81690FFE744F27F
:105960007040C5F60200006800F002010020B0EBB4
:10597000510F0ED1FFE7FFF733F81699401A41F2A5
:105980008931884204D3FFE703208DF8570000E0F7
:10599000E5E7FFE79DF85700A0BBFFE7FFE7189892
:1059A000D0F8B00000F44070B0F5407F13D1FFE7AD
:1059B00044F21041C5F60201086820F47C50189AA0
:1059C000D2F8B0204FF6F043C0F6FF731A4040EA19
:1059D0001210086008E044F21041C5F602010868A0
:1059E00020F47C500860FFE71898D0F8B0206FF3DF
:1059F0001F3244F27041C5F6020108681043086086
:105A0000FFE704E09DF857008DF85600FFE704E03B
:105A10009DF857008DF85600FFE7FFE718980068DB
:105A2000C007002800F04C80FFE71898806F0A90AC
:105A300028282BD80A99DFE801F0152929292929D6
:105A4000292916292929292929291E2929292929E4
:105A500029292629292929292929272929292929BB
:105A60002929280016E018980830012104F0B4FF15
:105A70008DF857000EE018982830012105F094F8B1
:105A80008DF8570006E005E004E003E001208DF802
:105A90005700FFE79DF8570060B9FFE744F2544113
:105AA000C5F60201086820F03800189A926F10437A
:105AB000086004E09DF857008DF85600FFE7FFE707
:105AC000189800788007002839D5FFE71898406FAC
:105AD0000990052819D80999DFE801F003040C148E
